:020000040000FA
:10000000F872001025020000290200002B020000F7
:100010002D0200002F02000031020000000000004D
:10002000000000000000000000000000330200009B
:100030003502000000000000411C00006D1C0000A3
:100040003B020000D51E0000E51E0000F51E00006A
:10005000051F0000151F00002D1F00003B020000BF
:10006000451F0000311C00003B0200003B02000065
:100070003B0200003B0200003B0200003B0200008C
:100080003B0200003B0200003B0200003B0200007C
:100090003B0200003B0200000D1C00003B02000080
:1000A0005D1F00003B0200003B0200003B0200001D
:1000B0003B0200003B0200003B0200003B0200004C
:1000C0003B0200003B0200003B02000000F002F88F
:1000D00000F099F80AA090E8000C82448344AAF149
:1000E0000107DA4501D100F08EF8AFF2090EBAE847
:1000F0000F0013F0010F18BFFB1A43F0010318475C
:100100007C5800009C580000103A24BF78C878C181
:10011000FAD8520724BF30C830C144BF04680C600D
:10012000704700000023002400250026103A28BF55
:1001300078C1FBD8520728BF30C148BF0B60704759
:100140006E2900F0D583702900F01F85662904F020
:100150003A87652904F03787672904F034876129D5
:10016000AFF3008003681B0A28BF41F080016929B2
:1001700000F0A681642900F0A381752900F0A08118
:100180006F2900F0AC84782900F0EB84E92900F0B5
:100190004784E42900F04484F52900F04184EF29E4
:1001A00000F0A984F82900F0EA840368DB0928BF7D
:1001B00041F08001632900F09587732900F09A8748
:1001C000E32900F0A587F32900F0AA8700207047F3
:1001D0001FB59DE8030000F0C1FA01F017F8040014
:1001E0000020002103F058FE401C60600020002128
:1001F00003F03CFEE06000F07BFA1FBD10B500206C
:1002000000F0CEFC10BD00F0D4FF1146FFF7E0FF78
:1002100003F06CFD01F0ACF803B4FFF7EFFF03BC93
:1002200000F078FA08480047FEE7FEE7FEE7FEE741
:10023000FEE7FEE7FEE7FEE7FEE7FEE703480449C8
:10024000044A054B70470000CD000000F802001082
:10025000F8720010F8620010F862001080F308884D
:10026000EFF30880B0E8F00F80F308887047EFF3F1
:10027000088020E9F00F80F30888704770B50646C3
:1002800000F04EFA056806F10B0020F00704B442B6
:100290009CBF002070BD2B466A68BAB11068A042AE
:1002A00010D304F1080188423CBF5068586007D35E
:1002B0005168101941601168091B01605860146091
:1002C000101D70BD13465268002AE7D1214628460A
:1002D00000F030FA0028DED170BD10B5002000F02B
:1002E00080FCFFF78BFFBDE81040012000F012BA40
:1002F000704770477047704770477047FFFFFFFFB8
:1003000070B50446051F00F00BFA0068002C14BFFE
:10031000446870BD002C18BFAC423CBF20466468E6
:10032000F8D301680A18AA4218BF456003D12A68A9
:1003300005461144016028684119A1421CBF6C6048
:1003400070BD6168696021680844286070BD53EA27
:10035000020C00F069802DE9F04B4FF00006002BF5
:100360001FBFB3FA83F503FA05F424FA05F65E40DD
:1003700012BF1643B2FA82F502FA05F4C5F1200560
:100380001EBF22FA05FC44EA0C04203556EA044C50
:100390004FEA144418BF641C4FF000084FF00009E6
:1003A000904271EB030C39D3002919BFB1FA81F7E0
:1003B00001FA07F6B0FA80F700FA07F6C7F120074E
:1003C0001EBF20FA07FC46EA0C062037B6FBF4FCF9
:1003D000A7EB0507103F07F01F0BCBF120060CFA27
:1003E0000BFB2CFA06F644BFB3460026202FA4BF11
:1003F0005E464FF0000B5BEA060C08BF4FF0010BA6
:1004000019EB0B09ABFB027C48EB0608C01B06FB93
:1004100002CC0BFB03CC71EB0C01C1E70B4602468F
:1004200041464846BDE8F08B13B54FF000004FF051
:100430000001AFF30080BDE81C4070477CB51D464D
:1004400016460C00009001D02044401E074B7B4410
:100450002A4669460190304600F063FA05461CB111
:100460000020694600F070FA28467CBD01050000B6
:1004700070B5044685690068C10601D5302600E0E4
:100480002026C00707D070BDD4E90121304690472F
:10049000206A401C20626D1EF6D570BD70B5044602
:1004A00085690078C00707D170BDD4E901212020FB
:1004B0009047206A401C20626D1EF6D570BD00007A
:1004C0002DE9F0410646002410687529314616A52D
:1004D00010D000F079F9002802DA404213A507E0B5
:1004E00031688A0701D512A502E0490704D511A594
:1004F000012401E000F071F900210A2206F124072D
:1005000009E0B0FBF2FCB0FBF2F302FB1C00303060
:1005100078541846491C0028F3D123462A46304611
:10052000BDE8F04100F08BB9000000002D00000094
:100530002B000000200000002DE9F05F89460446F2
:100540004FF0000ADFF874B1FB44C0F820A0204649
:10055000E1688847002874D0252806D0D4E9012115
:100560009047206A401C2062F1E700265F46204643
:10057000E16888472028054607DB312D05D2781928
:1005800010F8200C08B10643F1E7B00701D526F0BA
:100590000406C4F81CA00027C4F818A02A2D09D00E
:1005A000284603F09BFB38B304EB8708303DC8F8BE
:1005B000185019E059F8041B204604EB870291619A
:1005C000E1688847012F054618D1E069002820DA44
:1005D00026F020061DE0D8F8180000EB800005EB9F
:1005E00040003038C8F818002046E16888470546C2
:1005F00003F074FB0028EED1012F0AD02E2D08D174
:100600002046E16888477F1C0546022F46F02006F9
:10061000C4DBA069002803DA404246F00106A0616D
:10062000F00701D026F010066C2D0BD0682D09D0F4
:100630004C2D39D06A2D35D0742D35D07A2D33D04C
:1006400016E038E0E1682F4620468847B842054664
:1006500009D16C2F26D04FF48060E1680643204614
:100660008847054604E06C2F1AD04FF4807006438B
:100670000DB3A5F14100192802D8203546F40066D3
:100680004A462946204626604E46FFF759FD80B16E
:1006900001280BD0F61D26F0070000F1080956E7E7
:1006A0004020E4E78020D8E70020D6E706F10409DF
:1006B0004DE7284652E7206ABDE8F09F204F000032
:1006C0002DE9F041074615460E461020FFF7D6FDEE
:1006D00004000AD06760C4E9026500F025F80168EB
:1006E000216004600020BDE8F0810120FBE70000EC
:1006F00070B5064C7C44064D7D4403E020682044E0
:100700008047241DAC42F9D170BD0000D0530000D9
:10071000D053000001491820ABBEFEE726000200BE
:1007200000487047A002001000487047D002001037
:100730007047704738B504460A4600206946AFF353
:100740000080002808BF38BD02460099204600F00E
:1007500053FA012038BD012000F024BDF8B5AFF3F5
:100760000080054600200C46102000BF0646A81950
:10077000A0420DD9324669460020AFF30080070041
:1007800008BF00F00FFD0098A04218BF0546C4192D
:10079000FFF7C6FF05600746F01D20F00700461969
:1007A000284600F00AF8B44208BFF8BDA21B314643
:1007B0003868BDE8F84000F01FBA00210160C0E9C8
:1007C000011070471020704709684A0501D540B2F2
:1007D0007047C905FCD500B2704709684A0501D5C4
:1007E000C0B27047C905FCD580B2704770B50C46E1
:1007F0000546012A05D02878800600D5EA6900233D
:1008000002E0012305E05B1C934202D2E05C002879
:10081000F9D1A869E618C01AA861286A18442862A4
:100820002846FFF725FE04E0D5E9012114F8010B65
:100830009047B442F8D32846FFF730FE70BD2DE94B
:10084000F0470D4699469246044600F12408016897
:10085000880604D5E06921F01001216000E0012044
:10086000A84201DD471B00E00027A1697A1902EBCD
:100870000900081AA0612078C00602D42046FFF7BC
:10088000F7FD002608E0D4E901211AF80600904798
:10089000206A401C761C20624E45F4DB2078C0069E
:1008A0000AD52046FFF7E4FD06E0D4E90121302017
:1008B0009047206A401C2062381EA7F10107F4DC33
:1008C00007E0D4E9012118F805009047206A401C90
:1008D0002062281EA5F10105F3DC2046FFF7DEFDAE
:1008E0002078000602D50220BDE8F0870120FBE752
:1008F00011680268006A530501D508700AE0D30543
:1009000001D5088006E0130603D5C217C1E900022D
:1009100000E008600120704701694A1C0261087804
:10092000704700B58FB0CDE901310021059105492F
:100930007944CDE9031011466846FFF7FDFD0FB07D
:1009400000BD0000E5FFFFFF0A6802F8010B0A6026
:100950007047D1E900239A4202D2531C0B601070F9
:10096000704700002DE9FF5F15468A460446DFF810
:10097000AC80F8440027D8E900103E46CDE90010CD
:1009800010E03AF816106A4602A800F0CDFB411CB0
:1009900007D02178890603D5E269391891420DD82C
:1009A0000744761C2078800602D5E069B84205DD50
:1009B000AE42E6DB3AF816000028E2D1A069C01B7F
:1009C000A0612046FFF754FDD8E90010CDE90010E2
:1009D000002017E03AF818106A4602A800F0A4FBBD
:1009E000B0F1FF3F81460BD000250DF1080B05E06B
:1009F000D4E901211BF8050090476D1C4D45F7D344
:100A000008F10100B0428046E4DB206A38442062ED
:100A10002046FFF743FDBDE8FF9F00000A4B0000A2
:100A20002DE9F0418046D21D22F007020025D2E9CF
:100A30000002F52915A614D0011E72F1000106DA94
:100A40000023D0EB030063EB020211A608E0D8F804
:100A500000108B0701D50FA602E0490701D50EA6AD
:100A600001251146002408F1240704E000F0DEF817
:100A700030323A55641C50EA0102F7D12B46324617
:100A800021464046BDE8F041FFF7D9BE0000000016
:100A90002D0000002B0000002000000030B40021D9
:100AA00000F1240408E002F00705D208303542EADC
:100AB0004372DB086554491C52EA0305F3D104680C
:100AC000002310A2250707D5A40600D421B1C469CC
:100AD00001230DA2641EC46130BCFFF7B0BE10B587
:100AE000044621461068FFF778FE02462046BDE81E
:100AF00010400023D2E7D21D22F00701D1E90023E4
:100B0000CCE700000000000030000000F0B40D460B
:100B10000188090502D5214C7C4402E01F4C7C442D
:100B20000E34002100F1240608E002F00F0712093C
:100B3000E75D42EA03721B097754491C52EA030736
:100B4000F3D102780023120704D5702D06D009B125
:100B5000022311342246F0BCFFF771BE012310348A
:100B6000F8E770B504460D4621461068FFF735FEDC
:100B7000024629462046BDE870400023C6E7D21D44
:100B800022F00703D3E90023C0E70368126843F0AB
:100B9000200303600823C3610023B7E76C4900000A
:100BA0002DE9F0410646FFF7BFFD8046454613E0BC
:100BB00016B1E068B0420ED120682860D4E9010186
:100BC000D8F8007088472046FFF79AFBD8F8000055
:100BD000B842EBD100E025462C68002CE8D1BDE8F6
:100BE000F08110B500F0C6FABDE8104000F0BCBAC4
:100BF0000048704798020010034640688C46002861
:100C000018BF88423CBF03464068F8D318681844B0
:100C1000884207D00CF1030020F00700001D411AA4
:100C2000521A0146081D0A60FFF76ABB30B5B0F1E1
:100C30000A024FEA900E71F100034EEA817EB0EB9A
:100C40000E0061EB91014FEA101E4EEA017E10EB9F
:100C50000E0041EB11114FEA102E4EEA016E10EB1F
:100C60000E0041EB11214FEA104E4EEA014E10EBFF
:100C70000E0041EB1141401841F100014FEAD00054
:100C800040EA41704FEAD10110EB80054FEA810440
:100C900044EA907444EB01046D1944EB0404521BC4
:100CA000A3414FF0000348BF0A3200D530BD401CBD
:100CB00041F1000130BD70472DE9FF4F0C461E4643
:100CC0004FF0FF378BB0D2E90001DDF860800A9069
:100CD0008A46C1F30A5505B93D46002108464FF042
:100CE0000000BAF1000F00F4400005DA00EB8000CC
:100CF0004FF4400101EA50004FEA9059B9F1010F59
:100D000000DDB9460A9850EA4A000ED044F6105069
:100D1000A5F2FF3545432F14B8F1000F1ED07542E0
:100D2000291E1EDDC9F100021CE0B8F1010F4FF0D1
:100D3000000001D0302103E0F24305E02154401CC3
:100D4000B042FBDB30460022002121540B99C1F850
:100D50000880C1E900200FB0BDE8F08FBD1B6D1CFD
:100D6000DEE74A4600DA694206A800F093FA06ABCD
:100D700093E8070003AB83E8070050460A9900F0A8
:100D800089FB8DE80700A0F500501F3800900398FC
:100D9000002D09DD42F21F014A46084403A90390D1
:100DA000684600F0E8FD08E0A0F500504A461F380C
:100DB00003A90390684600F0F2FD8DE807000004E7
:100DC000000C03D04FF0FF30410800E01046B8F1AE
:100DD000000F03D00022009215461EE0751E05D4B8
:100DE000FFF724FF303262556D1EF9D5B34601225C
:100DF000084302D000227F1C04E02078302801D173
:100E000000227F1E002A099786D01DE0112D07DAE7
:100E1000FFF70CFF303262556D1C50EA0102F5D12C
:100E2000084302D00098C8B10EE00021681E05E01A
:100E3000235C625C63542254401E491C8142F7DBF0
:100E4000AB46A81B401E0990002004F80B000B982D
:100E5000099AC0F80880C0E9002B7CE711264FF002
:100E6000000859E72DE9F04F88460446D21D22F0CC
:100E7000070191B0D1E90001CDE90A0102F037FE86
:100E800002460B98C00F01D02D2007E02068810793
:100E900001D52B2002E0202101EAC000032A09909D
:100EA00001D0072A05DB03464146204600F0B2F98F
:100EB0000BE12078800601D5E06900E00620B8F15A
:100EC000650F814606D0B8F1660F18D0B8F1670FEC
:100ED00070D131E00020B9F1110F009001DB112336
:100EE00001E009F101030AAA01A90CA8FFF7E4FE39
:100EF000DDE90C70002609F10105834647E0012079
:100F00004B4600904FF000470AAA01A90CA8FFF732
:100F1000D3FEDDE90DB00C995D46002610B909F14C
:100F200001000D18B9EB050003D4C0F1FF3609F13B
:100F30000105A5EB09002BE0B9F1010F01DA4FF033
:100F400001090020B9F1110F0090484601DD11237D
:100F500000E003460AAA01A90CA8FFF7ADFEDDE9EF
:100F60000C704D4600268346207800070AD4AB4516
:100F700000DA5D4601A8012D04DD411911F8011CBC
:100F8000302907D04F4502DA17F1040F04DA0120A7
:100F900082460FE06D1EEEE7002F02DCED1B3E44A3
:100FA00003E0781CA84200DD7D1CB81B00F1010A9B
:100FB0004FF000472078000703D4AA4501DB4FF02B
:100FC000FF3A0021B7F1004F0DF143088DF84310AF
:100FD00024D002202B23002F01DA7F422D230A2167
:100FE000021EA0F1010000DC5FB197FBF1FC97FB52
:100FF000F1F201FB1C7C17460CF1300C08F801CD16
:10100000EEE7A8F1010003702188090501D545210B
:1010100000E06521A0F1010800F8011C09980FA962
:10102000A1EB0807FF1D00B10120411901EBEA7097
:10103000A1693844081A401EA0612078C00602D475
:101040002046FFF715FA099828B1D4E90121904705
:10105000206A401C20622078C00622D52046FFF777
:1010600007FA1EE0002E04DBB34502DD01A8805D17
:1010700000E03020D4E901219047206A401C206222
:10108000761CAAF101005FEA000A0AD100F0BEF85E
:10109000C0680168405CD4E901219047206A401C87
:1010A0002062281EA5F10105DCDC07E0D4E901215E
:1010B00018F8010B9047206A401C2062381EA7F1E7
:1010C0000107F3DC2046FFF7E9F9032011B043E6FE
:1010D00010B5436913B1AFF3008001E0FFF786FB61
:1010E000012010BD127800F124010A7000224A701C
:1010F0000122EDE711684FF0FF32E9E710B54369CF
:1011000013B1AFF3008001E0FFF72CFC012010BD0C
:10111000128800F1240182840022C2840122EDE7BA
:1011200011684FF0FF32E9E770B516460C460546E8
:1011300000F064F8036893F80101012806D0FF2C41
:101140000FD8185D68B101202C7070BDD3F807016D
:101150003246214603F2071303442846BDE8704097
:1011600018474FF0FF3070BD002801D0FFF7D2BA0A
:101170007047000010B5002102A000F002F9012024
:1011800010BD0000534947414252543A2041626E1B
:101190006F726D616C207465726D696E6174696FD8
:1011A0006E00000010B500F005F9BDE81040FFF733
:1011B000DBBF7546FFF71CFDAE460500694653468A
:1011C00020F00700854618B020B5FFF737F8BDE8D6
:1011D00020404FF000064FF000074FF000084FF09E
:1011E000000B21F00701AC46ACE8C009ACE8C0092F
:1011F000ACE8C009ACE8C0098D46704710B500F0F6
:1012000005F8001D10BD00BF912C0000004870477C
:10121000B80200102DE9F0411F460446032601687C
:10122000072A01F4006004DB08B116A505E016A545
:1012300003E008B115A500E015A521F0100020601D
:10124000A069C01EA0610FB1401EA0612046FFF73B
:101250000FF94FB1D4E9012138469047206A401C6C
:101260002062C01C206206E0206AFAE7D4E901216E
:1012700015F8010B9047761EF8D22046FFF70EF9BD
:10128000BDE8F0814E414E006E616E00494E460051
:10129000696E66002DE9F047814616468AB03348EC
:1012A00078440DC88DE80D0030487844801C03ACAC
:1012B0000DC884E80D0041F69B300844372190FBAF
:1012C000F1F290FBF1F5A5F1800501FB12041B3C46
:1012D00002D56442012000E00020DFF890A08046A3
:1012E0000027FA44AAF1BE0A0DE0E00709D0324611
:1012F000684607EB47010AEB810100F050FB8DE8DF
:10130000070064107F1C002CEFD1184F7F44AC3FC6
:1013100018E0E80714D007EB04100DF1180A90E864
:101320000E008AE80E00C068F04201D198190890BA
:10133000324606A903A800F032FB03AB83E807009E
:101340006D10641C002DE4D132466946B8F1000FDF
:1013500003A802D000F00FFB01E000F020FBC9E978
:101360000001C9F808200AB0BDE8F08788420000F3
:1013700010B50446AFF300802046BDE81040FEF7EC
:101380004BBF70B505460C460A2000E06D1C00F00E
:1013900039F835B128780028F8D102E0641C00F053
:1013A00031F814B120780028F8D1BDE870400A2047
:1013B00000F028B810B5012805D0002103A0FFF7E0
:1013C000E0FF012010BD09A1F8E700005349475292
:1013D000544D454D3A204F7574206F662068656105
:1013E00070206D656D6F7279000000003A204865CD
:1013F0006170206D656D6F727920636F72727570A8
:101400007465640008B569468DF800000320ABBE22
:1014100008BD00004FF0013C50F8042B51F8043B8C
:101420009A4221D1A2EB0C03934313EACC1317D1B8
:1014300050F8042B51F8043B9A4215D1A2EB0C034F
:10144000934313EACC130BD150F8042B51F8043B0F
:101450009A4209D1A2EB0C03934313EACC13DBD0DD
:101460004FF00000704700BFD01A01BAB1FA81F105
:1014700001F0180122FA01F0CB40C1F12001DBB2EA
:10148000C0B2C01A2CFA01F3D11A914311EAC31168
:10149000E6D170475FEA400C08BF91F0000F4FEAB9
:1014A0008C234FEAC12243EA51514FEA1C5018BF26
:1014B00000F5F0404FEA300018BF41F000415FEA0C
:1014C0006C5C00F02980BCF1FF3F08BF40F0804019
:1014D0007047130C06BF12044FF0100C4FF0000CB5
:1014E000130E04BF12020CF1080C130F04BF1201FB
:1014F0000CF1040C930F04BF92000CF1020CD30FFB
:1015000004BF52000CF1010C11464FF00002A0F193
:101510001F00A0EB0C00704711F0004F08BF704790
:1015200031F000413FF4D5AF0B0C06BF09044FF07A
:10153000100C4FF0000C0B0E04BF09020CF1080C4C
:101540000B0F04BF09010CF1040C8B0F04BF8900C1
:101550000CF1020CCB0F04BF49000CF1010CCCF1D3
:101560002003A0EB0C0022FA03F302FA0CF241EA8A
:10157000030100F10100704720F07F4C80EA030076
:1015800023F07F47ACEB070303F57C5300F00040EA
:1015900003F1FF032DE980494FEA154B09B44FEAE7
:1015A000144325EA0B4E24EA03480FF2042606EB07
:1015B000132749083E785FEA320203FB0667C7F546
:1015C000000707FB06F64FEA54374FEAD64606F106
:1015D000020607FB066CCCF1005C4FEA1C472CEAC4
:1015E000074C07FB06F40CFB06F504EB15464FEA27
:1015F000961634BF00204FF000404FEAD13706FB6B
:1016000007FC4FEA1C4C0CFB0BF7D21B03FB0CF73F
:1016100061EB07010CFB0EF7B0EB074072EB1742D2
:101620000CFB08F734BFA2EB0742B2EB074261EBB9
:1016300017414FEA0C444FEA910706FB07FC4FEABB
:101640001C4C0CFB0BF7B0EBC74072EB573203FBA3
:101650000CF734BFA2EBC742B2EBC74261EB573184
:101660000CFB0EF7B0EBC70072EB57720CFB08F7E0
:1016700034BFA2EBC702B2EBC70261EB5771039F05
:101680004FEA816141EA921104EBCC044FEAD13771
:101690004FEA826206FB07FC42EA90124FEA806042
:1016A0004FEA1C4C0CFB0BF7D21B03FB0CF761EB56
:1016B00007010CFB0EF7B0EB074072EB17420CFB77
:1016C00008F734BFA2EB0742B2EB074261EB1741C8
:1016D0004FEA8C554FEA910704EB9C2406FB07FC6C
:1016E0004FEA1C4C0CFB0BF7B0EBC74072EB5732C8
:1016F00003FB0CF734BFA2EBC742B2EBC74261EB6E
:1017000057310CFB0EF7B0EBC70072EB57720CFBB6
:1017100008F734BFA2EBC702B2EBC70261EB577107
:1017200015EB4C254FEA816141EA92114FEA826242
:101730004FEAD13742EA901206FB07FC44F100045D
:101740004FEA80604FEA1C4C0CFB0BF7D21B03FBEB
:101750000CF761EB07010CFB0EF7B0EB074072EBE7
:1017600017420CFB08F734BFA2EB0742B2EB07426B
:1017700061EB174115EB1C154FEA813141EA9241AB
:101780004FEA823242EA90424FEA80304FEA0C76CA
:1017900044F1000448EA03434EEA0B484FF0000EC0
:1017A000B2EB080C71EB030724BF624639464EEBDF
:1017B0000E0E4FF0000B0018524149414BEB0B0B42
:1017C000B2EB080C71EB03077BF1000B24BF624600
:1017D00039464EEB0E0E4FF0000B001852414941B6
:1017E0004BEB0B0BB2EB080C71EB03077BF1000B1F
:1017F00024BF624639464EEB0E0E51EA020718BF6F
:1018000046F0010616EB0E7655F1000254F1000188
:1018100003D5BDE88901BDE80088BDE88901BDE8C0
:101820000048B619524141EB0101A3F10103704791
:1018300080807F7E7D7C7B7A79787776767574730D
:10184000727171706F6E6E6D6C6C6B6A6A696868CC
:10185000676666656464636362616160605F5F5E62
:101860005E5D5D5C5C5B5B5A5A59595858575756D8
:10187000565555555454535352525251515050503D
:101880004F4F4F4E4E4D4D4D4C4C4C4B4B4B4A4A8F
:101890004A494949484848474747474646464545D3
:1018A000454444444443434343424242424141410C
:1018B000002B26D4770021D01CB54FEA370703B49C
:1018C0004FF010004FF010014FF000000FBCBDE8CA
:1018D00010400BF1010BBBF1010F08BF5FEA1707C6
:1018E00022BF12F1010211F101014FF0004143F159
:1018F000000300F0004043EA00007047F9D35708A6
:10190000DAE746EA064613F1400F4FEA16461FDDB6
:1019100013F1200FDFBF16430A46002120335B423C
:10192000C8D0C3F1200746EA064602FA07F74FEA95
:10193000164646EA0706C3F1200722FA03F201FA27
:1019400007F721FA03F14FF0000342EA0702B1E77B
:1019500046EA020646EA06464FEA164646EA010607
:10196000BCBF46EA0646360C4FF000034FF00002BB
:101970004FF000019EE72DE9C048934630B491E84E
:10198000380007C831EA400C48BF34EA430C03D59D
:10199000FFF7F2FDFFF78CFFF0BCBDE800882DE9F2
:1019A000C048934630B491E8380007C810F0804F23
:1019B00008BF13F0804F03D100F005F8FFF778FF60
:1019C000F0BCBDE8008820F07F4780EA030023F0E8
:1019D0007F4C07EB0C03A3F57C5300F00040A3F110
:1019E000FE0392F0000F00F0B38095F0000F00F0BE
:1019F00077802DE901494FEA11404FEA144621EA68
:101A0000004800FB06FC24EA064708FB06F607FB35
:101A100008F800FB07F718EB06484CEB164C4FEAAA
:101A2000124B18EB07484FEA15464CEB174022EAD9
:101A30000B4E0BFB06FC25EA06470EFB06F607FBE2
:101A40000EFE0BFB07F71EEB064E4CEB164C4FF051
:101A500000061EEB074E4CEB174B18EB0B0840F142
:101A6000000018EB0E0B58EB000840F100008F1A35
:101A70004FF000013CBFC943661B14BFB5EB040C1B
:101A800000213CBFC943F61B4FEA17444EEA8E0EB5
:101A900027EA04454FEA1C4704FB07622CEA074C7F
:101AA00005FB07F70CFB05F604FB0CFC16EB0746E1
:101AB00042EB174216EB0C4642EB1C421BEB0606B0
:101AC00058EB0202414146EA9E0601D5BDE8018974
:101AD000B619524141EB0101A3F10103BDE80189AF
:101AE0004FEA14454FEA114724EA054621EA074C1C
:101AF00005FB07F406FB07F70CFB06F105FB0CFCE6
:101B000011EB074144EB17444FEA124711EB0C412C
:101B100044EB1C4422EA074C05FB07F206FB07F7DF
:101B20000CFB06F605FB0CFC16EB074642EB1742D6
:101B300016EB0C4642EB1C456A1854F1000148BFF5
:101B40007047B619524141EB0101A3F101037047FF
:101B500095F0000F37D04FEA11424FEA144721EABF
:101B6000024624EA074C02FB07F106FB07F70CFBD1
:101B700006F402FB0CFC14EB074441EB17414FEA5F
:101B8000154714EB0C4441EB1C4125EA074C02FBC2
:101B900007F506FB07F70CFB06F602FB0CFC16EB41
:101BA000074645EB174516EB0C4645EB1C42121950
:101BB00051F1000148BF7047B619524141EB010194
:101BC000A3F1010370474FEA14454FEA114724EA95
:101BD000054621EA074C05FB07F106FB07F70CFB5E
:101BE00006F24FF0000605FB0CFC12EB074241EB3E
:101BF000174112EB0C4251EB1C4148BF7047921841
:101C000041EB0101A3F101037047000010B54FF44F
:101C10008030054908630548006800680169034889
:101C20000068884710BD00000040034024000010F9
:101C300010B50248006800F0AFF910BD3800001080
:101C400010B5FEF714FB074908600021054800683D
:101C5000054A126890470349086008460068FEF785
:101C6000FDFA10BD500000101800001010B5FEF76E
:101C7000FEFA0A4908600A480068401C08490860E2
:101C8000012106480068074A126890470349086026
:101C900008460068FEF7E2FA10BD00004C00001094
:101CA0001C0000101800001020208349086000BFAD
:101CB0008148006800F040000028F9D003207E49E8
:101CC0009C39086000207D49C1F8A8017A490C318F
:101CD000086001207849943908607948774984314F
:101CE00008600120091F0860AA2074498C3108602F
:101CF00055207249C1F88C0000BF704888300068D8
:101D000000F080600028F8D003206C498031086022
:101D1000AA206A49C1F88C00552068498C310860B6
:101D200023206649A43108600120091F0860AA2009
:101D30006249AC3108605520086000BF5F48A83098
:101D4000006800F480600028F8D003205B49A031CF
:101D50000860AA205949C1F8AC0055205749AC3158
:101D6000086058485549C431086000205349C1F8FB
:101D7000C8010846D0F88800C0F30160032860D18C
:101D80004D489438006800F0030030B1012820D09D
:101D9000022839D0032853D100E000BF47488830DB
:101DA0000068C0F30E00401C4000474948434349C7
:101DB000D1F88810C1F30741491CB0FBF1F13E484E
:101DC0009C380068C0B2401CB1FBF0F03F4908608D
:101DD00036E03A4888300068C0F30E00401C4000EE
:101DE0003B4948433549D1F88810C1F30741491CA4
:101DF000B0FBF1F130489C380068C0B2401CB1FB28
:101E0000F0F0324908601BE02C4888300068C0F3CD
:101E10000E00401C40004FF4FA4148432749D1F8D6
:101E20008810C1F30741491CB0FBF1F122489C38EE
:101E30000068C0B2401CB1FBF0F02449086000BF4C
:101E400030E01D489438006800F0030030B10128EC
:101E500010D0022819D0032823D100E000BF164873
:101E60009C380068C0B2401C1749B1FBF0F017491C
:101E7000086016E010489C380068C0B2401C144945
:101E8000B1FBF0F0114908600BE00B489C3800688A
:101E9000C0B2401C4FF4FA41B1FBF0F00B490860AE
:101EA00000BF00BF0548006820F4704040F4804047
:101EB0000249086070470000A0C10F4000C00F40F9
:101EC00063000500DE87280400093D0000000010C3
:101ED000001BB70010B50248006800F05DF810BDA7
:101EE0002800001010B50248006800F055F810BD39
:101EF0002C00001010B50248006800F04DF810BD2D
:101F00003000001010B50248006800F045F810BD20
:101F10003400001010B5044800680068816A024867
:101F20000068884710BD00003C00001010B5044850
:101F300000680068816A02480068884710BD000098
:101F40004000001010B5044800680068816A02482B
:101F50000068884710BD00004400001010B502481A
:101F6000006801F0ABFC10BD48000010002809DB40
:101F700000F01F02012191404209920002F1E0228B
:101F8000C2F8001170470000024B03608180C280DC
:101F9000704700004C55000010B5044660690068A9
:101FA00000F0010038B10120616908602068016912
:101FB0002046884703E0606900686169086010BDD9
:101FC00010B5C3684B43190C037C042B3AD1072A84
:101FD00035D2DFE802F034040C141C242C001B4B17
:101FE000D9611B6D43F00203184C236528E0174BA1
:101FF00019621B6D43F00403144C236520E0134B5E
:1020000059621B6D43F00803104C236518E00F4B19
:1020100019641B6D43F010030C4C236510E00B4B4F
:1020200059641B6D43F02003084C236508E0074BFF
:1020300099641B6D43F04003044C236500E000BF2E
:1020400000BF00BF00BF00BF10BD00000080014006
:1020500070B505460C461646287C04284CD1072C42
:1020600047D2DFE804F046040F1A25303B00002178
:10207000192000F023FA2248C06C40F40070204977
:10208000C86437E000211A2000F018FA1C48C06C20
:1020900040F480601A49C8642CE000211B2000F045
:1020A0000DFA1748C06C40F400601549C86421E07F
:1020B00000211C2000F002FA1148C06C40F480504E
:1020C0000F49C86416E000211D2000F0F7F90C4804
:1020D000C06C40F400500A49C8640BE000211E2087
:1020E00000F0ECF90648C06C40F480400449C86434
:1020F00000E000BF00BF00BF00BF00BF70BD000018
:10210000008001402DE9F04788B004460E46914614
:1021100022464A48206002F1080001F05BF8A0F175
:10212000080200BF1446464810602674207C05282B
:1021300004D2DFE800F0040D151D250028E04FF063
:10214000402060613F4804600120FFF70FFF1FE05F
:102150003D4860613D4804600220FFF707FF17E03B
:102160003B4860613B4804600320FFF7FFFE0FE03F
:1021700039486061394804600420FFF7F7FE07E042
:1021800037486061374804600920FFF7EFFE00BF61
:1021900000BF484602F05CFD8046334902F0A0FDD6
:1021A0000746324902F09CFD8246012507E005EB17
:1021B000850045002E49504602F050FC82462D49CC
:1021C000504602F059FEF2D3504602F009FDE0609D
:1021D000284602F0AEF907468846E06802F0A9F901
:1021E0000022254BCDE9000102F0B6F93A464346FC
:1021F000CDE9020102F0B0F90022204BCDE9040143
:1022000002F012F8CDE9060102F066F96060681E7E
:102210006169C8606169E06888610320616948613B
:10222000207C042803D109206169486002E0012074
:1022300061694860204608B0BDE8F0876458000036
:102240006855000028000010008000402C0000109D
:102250000000094030000010004009403400001028
:10226000008001403800001020BCBE4BBD378635D1
:102270000000204100FF7F4780842E4184D77741B2
:102280002DE9F04104462179206903689A68904756
:102290000546A189681A02F0C3FC0746A16802F04E
:1022A000DDFB064602F09CFC85B22846BDE8F081C5
:1022B0002DE9F04104460F4615461E46DDF818800C
:1022C000434632463946204601F01CFA044605488A
:1022D00020602561206901684A6839469047204698
:1022E000BDE8F081845500000146487918B90879A5
:1022F00008B1012070470020FCE70146487918B179
:10230000087908B9012070470020FCE710B50446A1
:1023100004F1080001F068F9E179884201D0012058
:1023200010BD0020FCE770B504460D46A571E079AC
:10233000684008B1012000E00020014604F10800D7
:1023400001F05FF970BD01464879704710B5044649
:10235000607920712068416920468847607110BD0E
:102360002DE9F04104460F4690461D46069E0E4854
:1023700020604246394604F1080001F065F9A0F1F9
:102380000804002060712071A071E671314604F1EB
:10239000080001F036F9294604F1080001F049F976
:1023A0002046BDE8F0810000A05500000149016011
:1023B00070470000E455000070B507480068074901
:1023C0000968A0FB014001464FF47A7200232046C1
:1023D000FDF7BDFF70BD00001C00001020000010C4
:1023E00000BFFEE7F0B504460D46E01C20F00306F2
:1023F0002F1FF019A0F148018A624FF0000CC1F8BC
:102400002CC0C1F830C0C1F834C0C1F838C023F0C6
:10241000010CC1F840C00D4820F0010CC1F83CC0CF
:102420004FF0045CC1F844C0002008604860886038
:10243000C860086148618861C86108626FF0060C75
:10244000C1F824C0F0194838F0BD0000E1230000B5
:102450002DE9F04704460D46A08902F0F9FB8046BD
:10246000284602F0F5FB8146A16802F039FC0746D8
:10247000414602F085FA064602F0B2FB85B22279A7
:102480002946024801F0D4F9BDE8F0877400001035
:102490002DE9F04104460D4616461F463B4632469E
:1024A0002946204601F0A6FA04460348206000BFF2
:1024B00000BF2046BDE8F081F45500002DE9F0434F
:1024C00007460C4600216DE0DFF8EC8058F82180CB
:1024D000B7EB184F65D1DFF8E08038F82180C8F3FA
:1024E0000335DFF8D48038F82180C8F30712DFF80D
:1024F000C88018F8218008F00F0C4FEA02784FEAE4
:10250000D8634FEA450808EB1216DFF8B08008EBF5
:1025100086004FF0030909FA03F9D0F8008028EA91
:102520000908C0F800800CFA03F9D0F8008048EAE6
:102530000908C0F80080DFF8848008F1400808EB43
:1025400086004FF0030909FA03F9D0F8008028EA61
:102550000908C0F8008004F0030909FA03F9D0F86B
:10256000008048EA0908C0F80080DFF8508008F1D0
:10257000680808EB85004FF0010909FA02F9D0F864
:10258000008028EA0908C0F80080C4F3001909FA9D
:1025900002F9D0F8008048EA0908C0F80080BDE8D8
:1025A000F083491CDFF8108058F82180B8F1000F43
:1025B0008AD100BFF3E700009400001000C0024081
:1025C00010B5044604F1080001F02BF810BD10B559
:1025D000044604F1080000F0FFFF10BD2DE9F041B2
:1025E00004460E46174601F077F82046FFF7EFFF46
:1025F000002506E0715D606803681A689047681CF2
:1026000085B2BD42F6DB2046FFF7DAFF01F054F851
:10261000BDE8F0810246074810604868064BC2E9F1
:102620000103CB68D3600B7C13744B691046536174
:1026300070470000D4580000685900002DE9F041AF
:1026400004460D4616461F460E48206065603A4611
:10265000314604F1080000F0F7FFA0F108044FF044
:102660000108217CE068026853684246984700BF31
:1026700000BF6169E06803689A68904700BF204620
:10268000BDE8F081D45800000149016070470000A6
:10269000105600000146C8687047000070B5044637
:1026A0000D460021204600F079FD044604482060D4
:1026B00028682146026928469047204670BD0000E0
:1026C0000059000010B50446206902685168884727
:1026D00010BD10B50446206902689168884710BD96
:1026E0002DE9F04104460D4616461F46204600F0EF
:1026F0006BFF04460548206025613A463146204676
:1027000000F00CFF2046BDE8F08100000C590000ED
:102710008168491C8160704770B504460D46206988
:1027200028B1206901684A682946904704E0294693
:1027300004F1180000F01AFD70BD0146886870476A
:1027400070B504460D460021204600F027FD0446E2
:102750000E48206004F1180000F03CFDA0F11804C0
:10276000256100206061206950B1206901684A68D4
:10277000214690472069026811688847E06002E0BE
:102780004FF0FF30E060204670BD00002056000092
:10279000704710B5002203681B788B4207DC036882
:1027A0005B788B4203DB03681B78CB1ADAB2D0E983
:1027B0000043A47802FB0433836010BDF0B50346E8
:1027C0000C46184601F07EF902FB004085B298687D
:1027D00000EBE500007805F007078021394100EAA9
:1027E00001060EB10120F0BD0020FCE7016042604F
:1027F00043688360704700000246002000BF0D4B15
:10280000DB6803F00103002BF9D00A4B996000BF8D
:10281000084BDB6803F01003002BF9D102E0054BF5
:102820009B68D8B2034BDB6803F00403002BF6D19E
:102830007047000000000340F0B506460C46154600
:102840003046FFF721FF06461E4830600027002172
:102850002520FFF733FE00211520FFF72FFE002172
:102860001820FFF72BFE1848006840F480601649D6
:10287000C439C1F8C400062C04D2DFE804F0040611
:10288000080A0C0E00BF312709E0182707E00B27C4
:1028900005E0052703E0022701E0002700BF00BF95
:1028A000C5F30010072141EA801005F0010140EA5C
:1028B000C11040EA0720054908600220086148600D
:1028C0003046F0BD48560000C4C00F400000034031
:1028D0002DE9F0418AB004460F4690461E4611A8E5
:1028E00001901F2102A8019B109AFDF7A7FD00206F
:1028F00001906068016842464B6839469847002558
:1029000007E002AB595D606803689A689047681CED
:10291000C5B202A8405D08B11E2DF2DB06E060687A
:1029200001688A6820219047681CC5B2B542F6DB71
:102930000AB0BDE8F081000070B504460D4620469F
:10294000FFF734FD04460448206065606068026853
:1029500011688847204670BD5856000010B50346E0
:102960000C4603F10C0001F0ADF8197E51434843C9
:10297000188103F10C0001F0A9F8197E6143484366
:10298000588110BD2DE9F84F04468946494604F1A7
:102990000C00FFF7FEFE04F10C0001F097F8217E19
:1029A0004843401C85B204F10C0001F08BF8217EF5
:1029B00000FB01F600956289218920683346C76BC8
:1029C0002046B84700252EE0002727E000261DE01E
:1029D0002A46314604F10C00FFF7F0FE82464FF024
:1029E00000080EE0BAF1000F01D0E08B00E0608B30
:1029F00001462068426C2046904708F1010000F033
:102A0000FF08207E4045EDDC701CC6B204F10C00CE
:102A100001F058F8B042DBDC781CC7B2207EB84227
:102A2000D4DC681CC5B204F10C0001F04FF8A842D8
:102A3000CADC04F10C0001F045F82189227E02FB7A
:102A400000102081BDE8F88F3FB50446079D142291
:102A50000A212046FFF798FA04460B48206001A897
:102A600007C8C4E90412E06025761F2060834CF299
:102A70001860A0834FF6FF70E08300202081608102
:102A8000204604B030BD00006C56000070470000C6
:102A9000044615E020680A21C2682046904704F1E8
:102AA0001C0000F073FD58B1A06901F03DFF07461E
:102AB000044A054B01F010FB054601F0DBFAA0616A
:102AC000E8E700009A9999999999B93F10B5044699
:102AD0000022642104F11C0000F032FD10BD10B58D
:102AE0000446204600F0F4FB0446204610BD18B50D
:102AF000034600BF00F0F0FD987B08B9012000E01C
:102B00000020024600F0D8FD00BF0AB1002018BD29
:102B10000020009003F10802002400F0DDFD907910
:102B200088B151791068405C00905179D079401E8D
:102B3000814202DA5079401C00E000205071907907
:102B4000401E9071012400F0B7FD00BF9DF8000009
:102B5000DDE71CB5044604F1080001F0B3F9D0B973
:102B60002068816820468847012802D0022810D1B9
:102B700007E0012001A9019004F1080001F0B2F979
:102B800008E002206946009004F1080001F0AAF96B
:102B900000E000BF00BF04F1080001F093F9D0B9D4
:102BA0002068416820468847032802D0042810D1B5
:102BB00007E0032001A9019004F1080001F092F957
:102BC00008E004206946009004F1080001F08AF949
:102BD00000E000BF00BF1CBD10B50446206988B1ED
:102BE000206902689169884720690268916A88476C
:102BF00008B1032010BD20690268516A884708B1F6
:102C00000420F7E70020F5E72DE9F04105460F46DF
:102C100016460021284600F0C1FA05460F482860F4
:102C200005F108044FF01408002020716071A071B4
:102C300084F80780E079002803DDE07900F051FF97
:102C4000206000BFA4F108052F6126B13068294635
:102C50004268304690472846BDE8F081EC560000B7
:102C600010B50446322000F019FD0022072120464D
:102C700000F058F94FF480720121204600F052F91B
:102C80004FF4C0620221204600F04CF900220421DA
:102C9000204600F047F940F207220821204600F0C4
:102CA00041F900220921204600F03CF900220A21C6
:102CB000204600F037F900220C21204600F032F9BE
:102CC00000220D21204600F02DF900220F21204680
:102CD00000F028F900221021204600F023F90022FC
:102CE0001121204600F01EF900221221204600F09A
:102CF00019F900221321204600F014F9C82000F031
:102D0000CDFC41F2B0221021204600F00BF9072241
:102D10001121204600F006F9322000F0BFFC40F2FD
:102D200085121221204600F0FDF8322000F0B6FC9A
:102D30004FF4A0521321204600F0F4F80E2229216E
:102D4000204600F0EFF800222A21204600F0EAF8A1
:102D5000322000F0A3FC4FF41C526021204600F00A
:102D6000E1F801226121204600F0DCF800226A210E
:102D7000204600F0D7F800228021204600F0D2F84B
:102D800000228121204600F0CDF800228221204639
:102D900000F0C8F800228321204600F0C3F800228A
:102DA0008421204600F0BEF800228521204600F054
:102DB000B9F810229021204600F0B4F800229221A8
:102DC000204600F0AFF803229321204600F0AAF835
:102DD0004FF488729521204600F0A4F80022972134
:102DE000204600F09FF800229821204600F09AF833
:102DF00041F238020321204600F094F8002084F8C4
:102E00003800204600F09BF84FF4897207212046D5
:102E100000F088F810BDF8B50446F0200090206856
:102E20004FF4A07300221146C56B2046A847002529
:102E30000CE0002606E0618B2068426C204690473B
:102E4000701C86B2F02EF6DB681C85B2B5F5A07F4B
:102E5000EFDBF8BD2DE9F04105460C4616461F464E
:102E6000DDF8188032465021284600F05BF806EB6A
:102E70000800401E82B25121284600F053F8224635
:102E80005221284600F04EF8E019401E82B253212C
:102E9000284600F047F832462021284600F042F844
:102EA00022462121284600F03DF82221284600F044
:102EB0000DF8002085F83800BDE8F08170B50446B3
:102EC0000D462946204600F017F870BD38B5054676
:102ED0000C4608480068009020128DF80100E0B20E
:102EE0008DF802000322694605F12000FFF776FB0A
:102EF00038BD0000E44F000038B505460C460848D0
:102F00000068009020128DF80100E0B28DF80200F8
:102F10000322694605F12000FFF760FB38BD000081
:102F2000E04F000070B505460E461446314628466F
:102F3000FFF7CCFF21462846FFF7DEFF70BD10B536
:102F4000044694F83800B8B9002250212046FFF713
:102F5000E9FFEF2251212046FFF7E4FF0022522132
:102F60002046FFF7DFFF40F23F1253212046FFF7D4
:102F7000D9FF012084F8380010BD00000FB4F8B567
:102F800005460E4614460C9F0097284609A90EC90F
:102F9000FFF75AFD05460E482860314605F120002E
:102FA000FFF738FBA0F120052068012102682046C8
:102FB00090472068C168204688472846FFF750FEA2
:102FC00020684168204688472846F8BC5DF814FB15
:102FD0000057000010B50446E08A10B1E08A401E98
:102FE000E082A069A8B1A069026891698847A069D8
:102FF0000268916A884740B9E08A50B9A08A40B116
:10300000A0690268D169884718B1A08AE0820120CE
:1030100010BDE069A8B1E069026891698847E0697C
:103020000268916A884740B9E08A50B9A08A40B1E5
:10303000E0690268D169884718B1A08AE08202205D
:10304000E6E70020E4E700002DE9F04704460E46DD
:1030500017469846DDE908592A4641462046FFF7BB
:10306000D3FD04460E482060A661E76185B128685B
:1030700001682846884758B128680168284688476B
:103080004FF47A7109FB01F1B1FBF0F0A08201E08D
:103090000020A082A08AE0822046BDE8F0870000E0
:1030A0005057000082898A4202DA8289028100E058
:1030B0000181704701218172704710B50446A07AE2
:1030C00000B910BDE089401CE081E089A1898842F7
:1030D00001D10020E081E0892189884205D10021C9
:1030E00004F11000FFF71FF906E0E08920B9012183
:1030F00004F11000FFF717F900BFE2E72DE9F041F6
:1031000004460E4617461D460021204600F046F8AC
:10311000044613482060A78104F110001149216181
:103120002979217569796175A979A175E979E175BF
:1031300004F118010C4AA261EA68E2612A7C0A7271
:103140006A69626200202081A072E072E0813068CA
:1031500021464268304690472046BDE8F081000095
:1031600064570000A05500006859000003460A4655
:10317000196808E0914201D100207047486808B101
:10318000496800E001E00029F4D100BF09B14A60BC
:1031900000E01A600120F0E77047000030B50446F7
:1031A0000D4605482060002060601DB1214628467C
:1031B000FFF7DCFF204630BD1C59000070B5054606
:1031C0002C6804E020680168204688476468002C69
:1031D000F8D170BD002101607047000070B5044651
:1031E0000D46E968206882682046904706460648F2
:1031F000006840F080500449086000BFE96820681A
:1032000042682046904770BD04ED00E010B50446CA
:10321000207C48B10020207421466069FFF7DEFF62
:103220002068416A2046884710BD70B504460D46A7
:10323000FFF7C2F8461900BF2146606900F058F850
:10324000FFF7BAF8B042F7D370BD10B50446207C42
:1032500048B9012020742068016A20468847214629
:10326000606900F051F810BD10B50446207C48B1EB
:10327000002020742068416A204688472146606902
:10328000FFF7ACFF10BD7047704710B504462068CB
:10329000C169204688472068416920468847002048
:1032A00010BD00002DE9F04104460D4616460748C2
:1032B00020606561A660A7683846FCF7DFFF6060A4
:1032C000002020742046BDE8F0810000285900004D
:1032D00010B50446054820602046FFF797FF606858
:1032E00000F0F8FB00206060204610BD2859000067
:1032F00000BF044A126842F08052024B1A6000BFBD
:103300007047000004ED00E02DE9F04105460C4651
:10331000002600F0E1F9094B2246D4E90101FFF74C
:1033200061F80746286839460268284690470646ED
:1033300000F0C2F9E6603046BDE8F0818B32000053
:1033400001464FF47A70704710B50446FFF734F821
:1033500010BD000070B504460D46204600F034F95B
:1033600004460448206000222946204600F0D6F892
:10337000204670BD5859000070B504460D460DB189
:10338000012000E000200246044800680068214651
:10339000C36802480068984770BD000054000010E0
:1033A0000249016002490860704700007857000038
:1033B0005400001010B5034C0460017182608381D9
:1033C00010BD00009057000010B502460B4600F0FB
:1033D00083F9107C08B9012100E0002102F1080006
:1033E00050F8210030F8134000F066F9204610BD77
:1033F00010B504462068416920468847217C09B100
:10340000012200E0002204F1080151F82210A27EFE
:1034100021F81200E07E401CE076E07E617E88426A
:1034200009DAE17E6069405CA076A17E206882694D
:103430002046904707E00020E076E17E6069405C2E
:10344000A0760020207710BD70B504460D46207E82
:10345000A84217DD607E217E884213DA0020627E5A
:10346000A16821F812000021627EE06820F81210A5
:10347000617E481C60766069455420682946C269AF
:103480002046904770BD10B50446607EA0B1207FF5
:1034900090B90020E076E17E6069405CA076207CF7
:1034A00008B9012000E00020207401202077A17ECF
:1034B000206882692046904710BD000070B5044620
:1034C0000D46164600212046FFF768FE04460F48C9
:1034D000206026B13068214642683046904700207F
:1034E000A076E07660762576680000F0FAFAA060B3
:1034F000680000F0F6FAE060284600F0F2FA606139
:10350000002020742077204670BD0000A0570000E6
:10351000014A026001717047C857000070B5044647
:103520000D461646206841682046884705EB450150
:10353000C1EBC51106EBC101B1FBF0F0A06070BD9D
:1035400070B504460D461646324629462046FFF71A
:10355000E5FF204600F001F870BD10B50446206874
:1035600001682046884760600120207310BD70B557
:1035700004460D461646207B20B932462946204691
:10358000FFF7CCFF204600F001F870BD70B504468F
:103590000025207B80B1206801682046884761684B
:1035A000401AA168884201D300202073207B08B90B
:1035B000012000E000200546207B10B92046FFF7DF
:1035C000CCFF284670BD0000024901600021017354
:1035D00081607047DC57000010B50446E168606800
:1035E00003681A69904710BD10B504466068026808
:1035F00051698847E168084008B1012010BD0020EA
:10360000FCE770B504460D462DB1E16860680368BB
:103610009A68904704E0E168606803681A69904717
:1036200070BD10B50446E168606803689A68904709
:1036300010BD70B504460D46217A60680268536873
:103640002A46984770BD000010B5044B03604160E6
:103650000272047A0123A340C36010BD68590000C0
:103660000149016070470000EC5700002DE9F0416E
:103670000446204600F05DFF05460022064B00F0A0
:103680006BFF074600F028FF84B201E0601E84B2A1
:10369000002CFBDCBDE8F0810080304010B5044612
:1036A00005E04FF47A70FFF7E1FF601E84B2002C52
:1036B000F7DC10BD7047000006480078002804DDE4
:1036C00004480078401E034908700248007800B999
:1036D00062B670471400001072B603480078401CB0
:1036E00001490870704700001400001000B503463F
:1036F0000A46FEF7D9FAFFF7DDFF0AB1FFF7ECFF44
:10370000184600BD2DE9F04104460D4616461F46F9
:103710003B46324629462046FFF74CFE0446024807
:1037200020602046BDE8F0810C58000010B504462A
:10373000206881682046884710BD000001238B4027
:10374000026A1A4342F08072014B1A60704700000F
:103750000040034030B505460C46082C05D2DFE892
:1037600004F0050A0F14191E232800BF02210020AF
:10377000FEF7A4FE22E002210120FEF79FFE1DE0DD
:1037800002210846FEF79AFE18E002210320FEF708
:1037900095FE13E002210420FEF790FE0EE00221C8
:1037A0000520FEF78BFE09E002210620FEF786FECB
:1037B00004E002210720FEF781FE00BF00BF30BDFC
:1037C00001460248406880B2704700000040034054
:1037D00070B504460D462A4608212046FFF76EFEC6
:1037E00004460E4820600E4804600E48006840F40D
:1037F00080500C49C439C1F8C4000B48006840F43B
:103800000010094908608815C86008482062206ACD
:1038100008601620FEF7AAFB204670BD285800005D
:1038200024000010C4C00F400040034000012000ED
:1038300010B522B94FF6C0730B40014C236010BD88
:1038400000C0084010B5044601212046FFF760FE85
:1038500004460C48206002210820FEF72FFE0A488B
:10386000006820F440000949C1F8A8010648006832
:10387000054908601920064908810620486020464D
:1038800010BD000050580000A8C10F4000C00F40FC
:1038900000C0084010B5044604F10800FFF78EFC94
:1038A00010BD01464868704730B504460D462946AC
:1038B00004F10800FFF75AFC30BD00002DE9F04785
:1038C00007463148D0F8008008F00800A8B1082069
:1038D0002D49083108602D49384600F05FF82C4921
:1038E000384600F06FF8044604F0100018B138684C
:1038F000816838468847BDE8F08708F4007068B1F1
:103900002449384600F04AF82349384600F05AF86E
:1039100004464FF400701C490831086008F00400A8
:1039200080B319483030D0F80090012500261FE000
:1039300009EA0500C8B129EA0509134838300560CD
:1039400000BF1148006800F020000028F9D00E48A0
:1039500014300468701006F0010240EAC2113868A1
:10396000C4F38002036838469847701CC6B26D00E5
:10397000202E02DAB9F1000FDAD104200249083111
:10398000086000BF00BFB6E700C200500005FE009F
:103990000002FE000005FB000002FB001022074BA6
:1039A0001A60074AC2F8101200BF044A083A1268A7
:1039B00002F01002002AF8D07047000008C2005040
:1039C00000C0005002463020084B18600848C0F87C
:1039D000101200BF05480838006800F020000028D9
:1039E000F8D002480C3000687047000008C2005050
:1039F00000C000502DE9F04104460D4616461F4612
:103A00003B46324629462046FFF7D4FC044602488E
:103A100020602046BDE8F0819858000070B504464B
:103A20000D462068294682682046904770BD10B533
:103A300002F001033BB143681B6801248C4023431F
:103A40004468236006E043681B6801248C40A3435C
:103A50004468236010BD4268D161704701464868E0
:103A600040697047426891617047000070B5044634
:103A70000D462046FFF7F4FD044610482060052D52
:103A800004D2DFE805F004070B0F130000BF0C4859
:103A900060600FE00A48203060600BE0084840306A
:103AA000606007E006486030606003E004488030F2
:103AB000606000BF00BF204670BD0000B458000029
:103AC00000C0092001460868C078704701460868B0
:103AD0000079704710B5044614B12046FCF710FC7D
:103AE00010BD10B504462046FCF7C8FB10BD4900C8
:103AF00050EAC12018BF04204A0D18BF40F0010051
:103B000040F2FF72B2EB515F08BF40F002000128A3
:103B100008BF05207047FCF7E0FB000070B586B0D9
:103B200000215348FFF7E2FD4FF47A72002151481B
:103B3000FEF7E8FA642204214F48FEF7E3FA002179
:103B40004E48FFF793FF01214D48FFF78FFF0421F7
:103B50004C48FFF78BFF4C48FFF774FE45494B4834
:103B6000FFF736FE112205214948FEF765FE0623C0
:103B7000424A47494748FEF761FD1C2241494648F1
:103B8000FFF762FD03AD454C621D21462846FEF756
:103B90002DFE00BF02200290DDE90401CDE9000105
:103BA0003D4A3C493E48039BFFF7E8F93C493D4804
:103BB000FEF7C2FE012000231822314900903A4846
:103BC000FEF7CEFB012000231A222D490090374832
:103BD000FEF7C6FB01200023142229490090344837
:103BE000FEF7BEFBC8202349314B2F4ACDE9001018
:103BF0002E493048FFF728FA002001231F222049D0
:103C000000902D48FEF7ACFB1A492C48FEF798FDB2
:103C10002B4C2A4D29462046FEF740FD04462948F4
:103C2000206000BF4FF47A71274800F0D5F9274C87
:103C3000254D4FF4FA7229462046FFF733FB044620
:103C400023482060002104F11C00FFF783FBA0F152
:103C50001C040020A0612046FFF7F7FA00BF2646AB
:103C60001C4A1D493046FCF72BFD06B070BD000014
:103C700058000010E8000010000100105C00001067
:103C8000640000106C000010740000101801001097
:103C90007C0000103C01001054010010E74F0000B0
:103CA0006401001080000010A0010010B801001095
:103CB000D0010010E80100100802001020020010DE
:103CC000880000103C5600003C0200106C020010FE
:103CD000BC56000000000000DF2A000030380A282F
:103CE00001D2012070470020704700009CB00023E3
:103CF0001A46454917A8FEF7F3FC44A000231A46CC
:103D0000194600904748FEF7E3FD00204FF07E5330
:103D1000454A0221009012A8FEF7CAFA00234FF08C
:103D20007E5219460EA8FEF7B3FB002203213F483E
:103D3000FEF78EF93E4B4FF47A723E4904A8FFF726
:103D4000DDF9FA2104A8FFF7ADF904A8FFF7B2F9ED
:103D500058E03948FEF7CBFE012804D0022809D0EC
:103D6000032812D10DE035480088A0F57A70334958
:103D700008800BE03148008800F57A702F490880F0
:103D800004E000202D49088000E000BF00BF2B4860
:103D900001880EA8FFF742FE032228480188234825
:103DA000FEF70EF91298C16812A8884724490880C6
:103DB00000220A2117A8FFF7DAFB18B32149886906
:103DC00000F0B2FDCDE902011FA014230022012161
:103DD00000901448FEF77CFD184800881DA11423AC
:103DE0000022CDE9001002210E48FEF771FD1448B3
:103DF00000881BA114230022CDE9001003210948EB
:103E0000FEF766FDA5E70000200200104A756E204F
:103E1000313620323031372031343A35313A32328E
:103E200000000000800000101801001000010010C8
:103E300008020010E8000010E801001090000010D7
:103E4000920000106C02001074696D653A252E31E5
:103E500066000000783A202020252D3664000000FE
:103E6000793A202020252D366400000010B5002965
:103E70000AD00878002807D005487844FDF7CAFA28
:103E8000002801D0002010BD0248784410BD000079
:103E9000221B00001A1B000010B500290AD0087868
:103EA000002807D005487844FDF7B4FA002801D06F
:103EB000002010BD0248784410BD0000121B000015
:103EC0000A1B000000B50246FFF706FC9079D17985
:103ED000884201DB012000E000200346FFF7ECFBF5
:103EE000184600BD30B502460B460024FFF7F4FB30
:103EF0009079D179884211DA187815791168485586
:103F00001179D079401E814202DA1079401C00E01C
:103F1000002010719079401C90710124FFF7CCFBB8
:103F2000204630BD10B50246906A08B90120906263
:103F3000032300200CE0141D04EBC004646834B9B2
:103F4000141D44F8301004EBC004636010BD401C25
:103F50000428F0DB0020F9E710B50246131D53F8E2
:103F600031000024131D03EBC1035C60131D43F8F3
:103F7000314010BD0246101D50F83100704710B599
:103F80000346181D5C6A40F83410EAB1986AD8629A
:103F900015E0986A401C9862986A042801D10020B4
:103FA0009862D3E90A04A04200D109E0181D9C6A76
:103FB00000EBC400007900F0020000B100E0E8E787
:103FC00000BF986A586201E000205862181D5C6AC0
:103FD00050F8340010BD00002DE9FC5F04468A460D
:103FE0002046FFF7DDF904461C482060002060628F
:103FF000A06200BF05E00022211D01EBC0014A6064
:10400000401C0428F7DB002060600721A1601FFA34
:104010008AF9DFF84CB01348C0F800B007204FF021
:10402000E0210861484600F084FA074600220E4B62
:1040300000F092FA054600220C4B00F08BFBCDE914
:10404000000100F049FA4FF0E02148610848C0F84B
:10405000009000BF2046BDE8FC9F00008058000093
:104060007933000018000010000059400000F03FB4
:104070002000001021F00042A2F16052B2F5801F32
:1040800001F0004328BFD2F17F6C0BD95FEA001C1E
:1040900043EAC20242EB507018BF704728BF20F0BD
:1040A00001007047B2F5801FBCBF184670474FEA49
:1040B000410C1CF5001F02D2084600F0D8BE70B5B6
:1040C00000F0F4FA00000089FFF7F6BF4FF000405F
:1040D000A0F580007047000010B591EA030F48BFBB
:1040E00083F0004300F13E83841A71EB030C05D288
:1040F000121943EB0C03001B61EB0C01DFF824E108
:104100004FEA1154A4EB135C1EEA430F18BF9EEA5A
:10411000445F73D023EA0E03DCF1200E21EA045140
:1041200043F4801332D322FA0CFE10EB0E0023FA74
:104130000CFE41EB0E01CCF1200E03FA0EFE10EB4B
:104140000E0051F10001B1F5801FCCF1200E32D2EA
:1041500001EB045112FA0EF2BDE8104058BF70474F
:10416000401C38BF5FEA420218BF7047002814BFE6
:1041700020F0010041F100014FEA410313F5001F57
:1041800038BF7047A1F1C04100F0DEBA012A43EB0D
:104190000302ACF1200CDCF11F0E32BF4FF0000E19
:1041A00023FA0CF310EB030041EB0451B4EB115F65
:1041B000D0D0A1EB045101F5801149085FEA30002D
:1041C00001EB04510ED350F1000038BF12FA0EFE7D
:1041D00008D1BDE81040C9E7401C38BF5FEA420281
:1041E000CAD1C3E7BDE810404FEA410313F5001FF1
:1041F00038BF7047A1F1C04100F0A6BA9EEA445F03
:1042000008D011EA5E0FBDE8104004BF01F0004184
:1042100000207047BDE8104070B500F047FA00BFBD
:1042200064FBBE3E0000E0FF2DE9C04130B4DFF882
:10423000A0C23CEA111418BF3CEA131400F0EC8051
:1042400081EA03051CEA111444EAD57418BF1CEA7C
:10425000131500F0C780A4EB05044FF0004545EAB4
:10426000C12145EAC32341EA505143EA525304F1C4
:104270007F74994204F500344FEAC0204FEAC2220D
:1042800008BF904200F09C804FEA13650FF2401681
:10429000765D4FEA134506FB05F7C7F1807706FB0D
:1042A00007F74FEAD737A7FB03687642C8F580388F
:1042B000A7FB06CE38BFA8F1010807FB08E64FF0C0
:1042C000000EA6FB028CE6FB03CEDCF1000CCEF167
:1042D000004E38BFAEF1010EA6FB0C584FF00007A0
:1042E0004FF00005E6FB0E87A1FB08C6A0FB07CE3A
:1042F00016EB0E0645F10005E1FB076515F1E04EF2
:104300007EBFA4F580345FEA46066D4116F1800752
:1043100045F100054FEA17274FEA066647EA0567A9
:10432000A6F1DE46B6F1805F4FEA15251FD9384663
:1043300024F0010C05EBC471BCF1FE6F01EB0C1114
:1043400002D8F0BCBDE8008124425CBF01F5801EAC
:104350009EEAC47F02D4F0BCBDE80081244238D478
:10436000F0BCA1F1C041BDE8004100F0EDB94FEA59
:10437000D22242EA43524FEAD323A7FB02864FEAF6
:10438000D02040EA415007FB03661EEA0E0F4FEAB9
:10439000D12105FB026658BFA6EB0056B6EB0056CE
:1043A0004FEA520E4EEAC37E18EB0E0E56EB530E3A
:1043B000BDD518EB02085E417F1C55F10005B6E73C
:1043C0004FF480154FF000074FF000064FF0000843
:1043D000ADE7F0BC4FF0000001F1C04101F0004139
:1043E000BDE8008111EA0C1F0CEA131500D00CE0A7
:1043F00013EA0C1F00F025804FF00000F0BC81EAAA
:10440000030101F00041BDE80081F0BCBDE80041BE
:1044100081EA030100F098B9F0BCBDE8004170B535
:1044200000F044F9097EFC3E00F007B881EA030180
:104430004FF0000001F00041704781EA030100F0F5
:1044400083B9F0BCBDE800414FF00000214970473E
:10445000FFFDFBF9F7F5F4F2F0EEEDEBE9E8E6E449
:10446000E3E1E0DEDDDBDAD8D7D5D4D3D1D0CFCDD0
:10447000CCCBCAC8C7C6C5C4C2C1C0BFBEBDBCBB09
:10448000BAB9B8B7B6B5B4B3B2B1B0AFAEADACAB04
:10449000AAA9A8A8A7A6A5A4A3A3A2A1A09F9F9EDE
:1044A0009D9C9C9B9A999998979796959594939390
:1044B000929191908F8F8E8E8D8C8C8B8B8A898927
:1044C00088888787868585848483838282818180AA
:1044D0000000FF070000F87F4FEA1153A3F5806347
:1044E000D3F11E03A8BFD3F1200C08DB4FF000422C
:1044F00042EAC12252EA505232FA03F070470942AE
:104500000BD4102BC4BF0020704703F5787CBCF19E
:10451000FF3F05D04FF0FF3070474FF0000070476D
:1045200070B500F0C3F800BF4992248000207047A6
:10453000F0E7B0FA80F310FA03F10AD0C3F11D03DB
:1045400003F580634FEA41504FEA035202EBD12159
:1045500070474FF000007047DFF848C170B51CEAA3
:10456000111E1EBF1CEA13159EEA0C0F95EA0C0FD4
:1045700000F06F8081EA030423EA4C134EEAD47EF4
:1045800021EA4C1141F4801143F48013AE44A1FBA5
:10459000024CA0FB0365AEF17F7E361955EB0C058E
:1045A000A1FB034C4CF10003A0FB021C16EB0C0614
:1045B000654153F10003094218BF46F0010613F4A8
:1045C000007F0BD14FEA03314FEA0530340341EA53
:1045D000155140EA16506FF003020AE04FEAC3217A
:1045E0004FEAC520F40241EA555140EA56506FF0B7
:1045F000020202EB2E4201EB025585EACE710AD08F
:104600005FEA440C18BF24F0004450F1000041F16F
:10461000000120EAD47040F2FE7C624500D270BDF9
:10462000A84214BF4FF080444FF04044002E08BF12
:104630000024BEF1806FA8BFA1F1C041BDE8704069
:1046400080F282804FF0000001F1C04101F0004192
:1046500070479EEA0C0F0CEA131518BF95EA0C0F71
:1046600006D04FF0000081EA030E0EF0004170BD4D
:1046700000F01CF88900013E00F007B800F009B80E
:104680004FEA430C5FEA5C5C08D081EA030100F06A
:104690005BB84FEA410C5FEA5C5CF6D14FF000007A
:1046A000014970470000FF070000F87F0EF1020E7D
:1046B0002EF0030E5EF8046B364205D4012A43EB5C
:1046C000030515F5001F12D8012841EB010C1CF55C
:1046D000001F0CD80ED14FEAD17C15F5001F0CEB52
:1046E0004C0C0CF1020C08BF4CEBD37C04E04FF0F7
:1046F000080C01E04FEAD37C0CEB4C0526FA05F6DA
:1047000006F00706B6F1040C06D20EEB860CBDE8E7
:1047100070404CF0010C6047DFE80CF0090B02021E
:104720004FF000414FF00000A1F5002170BD194687
:104730001046012851EB010418BFD4F5001484BFC2
:10474000002001F0004170BD0808A0F500114FEAFB
:104750003101704710B591EA030F48BF83F0004361
:104760003FF5C2AC841A71EB030C07D212198CF01E
:10477000004C43EB0C03001B61EB0C01DFF8A4E1E0
:104780004FEA1154A4EB135C1EEA430F18BF9EEAD4
:10479000445F00F0B08023EA6E03524221EA0451E4
:1047A000C3EB6E0338BF5B1EDCF1200E25D322FA6B
:1047B0000CFE10EB0E0043FA0CFE41EB0E01CCF1A7
:1047C000200E03FA0EFE10EB0E0051F10001CCF1A9
:1047D000200E29D412FA0EF201EB0451BDE810406C
:1047E00058BF7047401C1CBFB2F1004F70470028F3
:1047F0000CBF491C20F00100704712EB020E43EB86
:10480000030218BF4FF0010E4EEA4202ACF1200C39
:10481000DCF11E0E54D943FA0CFE10EB0E0051F1E0
:10482000FF31CCF11E0ED5D50EF1010E12FA0EFE9F
:10483000404141EB010101EB445C5FEA5C5C10D953
:1048400010EBDE7001EB045138BFBEF1004FBDE844
:10485000104018BF704700280CBF491C20F0010011
:10486000704730D24FEAD42C11F5001124F40064C3
:104870001BD0B1FA81F20B3AA41AA41ED2F1200384
:10488000914030FA03F31943904001EBCC71002CB6
:1048900001EB0451BDE81040A8BF704701F1C041D1
:1048A0004FF0000001F000417047B0FA80F310FAB9
:1048B00003F100D110BDE41A173C4805C90AE4E72A
:1048C00001EB045110BD491001EB0451BDE810404B
:1048D0004FEA300002E04FF0000170474A0008BF85
:1048E0000042F8D0B2F5001F28BF704701F0004128
:1048F0004FF0000070479EEA445F07D011EA5E0F58
:10490000BDE8104004BF002100207047BDE8104002
:1049100070B5FFF7CBFE00BF40DFF63E83F00041ED
:10492000104670470000E0FF43004FEAD30C4FEA07
:104930003C0C43401FBF40070CF1605113F0FE4F89
:1049400070471CF0006F03D100200CF0004170474D
:104950000CF0004343EA507010B540EACC0000F080
:1049600040FA00BF000000924FEA0001FFF7ECBEE2
:104970004FF000414FF00000A1F50021704700000A
:1049800090EA010F48BF81F0004100F1AE82421A67
:104990003CBF801A89184FEAD0524FF07F4C1CEA76
:1049A000410FA2EBD15318BF9CEA026F00F03B808D
:1049B0004FF0004C4CEA00204CEA012121FA03FCA4
:1049C00010EB0C0C1ED202F1FF325FEA1C2040EB10
:1049D000C25038BF70471CF07F0F4FEA400C18BF21
:1049E000BCF17F4F38BF7047C3F12003994008BF27
:1049F00020F00100BCF17F4F38BF7047A0F1C040EC
:104A000000F035BA4FEA3C00000A40EBC25028BF24
:104A10001CF0FF0F4FEA400CE6D018BFBCF17F4FEF
:104A200038BF7047EAE79CEA026F05D010EA5C0FD6
:104A300008BF00F00040704710B500F0D2F900BF89
:104A400064FBBE3E401058BFC0F14040491058BF03
:104A5000C1F140418142EFF3008070474FF47F0C79
:104A60001CEAD0121EBF1CEAD11392EA0C0F93EA83
:104A70000C0F00F0858090EA010F48BF42F480726D
:104A800040F4000C41F400002CF07F4120F07F4006
:104A900000B58142A2EB03020FF2081CACEB504EB2
:104AA000C0F100009EF800E04FEA4E0E00FB0EFC45
:104AB00038BF49004FEA2C1C02F5FA020CFB0EF33A
:104AC0004FEACE1E4FEA112C4FEAC1210EEB635E76
:104AD00042EB22420EFB0CFC4FEA1C5300FB03117D
:104AE0004FEA112C4FEA01310EFB0CFC4FEADC4C73
:104AF00000FB0C11C14228BF09184CEB03335DF8D1
:104B000004EB10EB410143EBC250B2F57C0F38BF10
:104B1000704729D512F0F00F1CBF00F1C04000F023
:104B200000407047008182838485868788898B8CCA
:104B30008D8E8F919293959697999A9C9D9FA0A206
:104B4000A3A5A7A8AAACAEB0B2B3B5B7B9BCBEC056
:104B5000C2C5C7C9CCCED1D4D7D9DCDFE2E6E9ECF7
:104B6000F0F3F7FAFE0000004FEA400C0CF1807CF5
:104B7000BCF17E4F28BF7047B0F1C04000F077B95C
:104B800090EA010F0CEAD11348BF42F480726245EB
:104B900038BF634507D213F47F0F16D080EA0100B7
:104BA00000F00040704710B500F01BF9097EFC3E94
:104BB00000F005B880EA010000F00040704780EA8C
:104BC000010000F0004000F052B912F47F0F04BF62
:104BD0000248704780EA010000F049B90000C07F38
:104BE000C10DD1F19E0206DB4FEA002343F00043E2
:104BF00023FA02F07047004207D54FEA4001B1F1B5
:104C0000FE4F02D24FF00000704710B500F0E9F8F7
:104C100049922480002070476FEA2000704700000E
:104C200010F0004148BF4042B0FA80F310FA03F29E
:104C3000C3F19D030BD051EAC35101EB122053067F
:104C400038BF704700F1010008BF20F00100704735
:104C5000B0FA80F310FA03F2C3F19D030AD0D9052C
:104C600001EB1220530638BF704700F1010008BF66
:104C700020F001007047000050EA010C00F11380A1
:104C80001CF5000F58BFBCF5000F01D488427047D7
:104C900007D710F5000F58BF11F5000F15D4884243
:104CA0007047894270471CF5000F04D5BCF5000F12
:104CB000F7D5814270474FF0807C1CEB400F38BF26
:104CC0001CEB410F01D28142704710B500F089F80A
:104CD000922449004FF000504FF08051FFF7B2BED0
:104CE0004FF47F0C1CEAD0121EBF1CEAD11392EACB
:104CF0000C0F93EA0C0F00F0478090EA010F48BFB9
:104D000042F480724FF0004C4CEA00204CEA012142
:104D100002EB0302A0FB0113A2F50002002918BF59
:104D200043F001035B0028BF4FEA330342EB22420A
:104D30005FEA132C4CEBC2502EBFBCEB436FB2F5B5
:104D40007C0F70474FEA036CBCF1004F08BF20F0A6
:104D50000100B2F57C0F38BF70470BD582F0FF021F
:104D600012F5803FC8BF704700F1C040D8BF00F0C7
:104D70000040704700F5000C5FEA4C0C48BF7047DC
:104D8000B0F1C04000F073B890EA010F0CEAD11303
:104D900048BF42F48072624538BF634504D280EA5E
:104DA000010000F00040704710B500F01AF800BF95
:104DB0008900013E00F007B800F009B85FEA410C35
:104DC0005FEA1C6C08D080EA010000F050B85FEA8E
:104DD000400C5FEA1C6CF6D14FF00040A0F580005B
:104DE00070470EF1020E2EF0030E5EF8044B2442C3
:104DF00004D44FEA4102B2F17F4F11D84FEA400389
:104E0000B3F17F4F0CD80ED14FEAD07CB2F17F4F77
:104E10000CEB4C0C0CF1020C08BF4CEBD17C04E009
:104E20004FF0080C01E04FEAD17C0CEB4C0324FA64
:104E300003F404F00704B4F1040C06D20EEB840C66
:104E4000BDE810404CF0010C6047DFE80CF00708AB
:104E500002024FF00040A0F5800010BD084642005D
:104E600018BFD2F1807288BF00F0004010BDFF2152
:104E700041EAD050C005704751EA000C00F11380A0
:104E80001CF5000F58BFBCF5000F01D481427047DC
:104E900007D711F5000F58BF10F5000F15D4814248
:104EA0007047894270471CF5000F04D5BCF5000F10
:104EB000F7D5884270474FF0807C1CEB410F38BF1C
:104EC0001CEB400F01D28842704780EA010081EA62
:104ED000000180EA0100FFF7F8BE000090EA010F30
:104EE00048BF81F000413FF552AD421A04D882F02C
:104EF0000042A0EB020011444FEAD0524FF07F4C29
:104F00001CEA410FA2EBD15318BF9CEA026F4AD0B2
:104F10004FF0004C4CEA00204CEA012121FA03FC3E
:104F2000B0EB0C0C0FD412F0FE0F36D05FEA4C0041
:104F30001DD5001240EBC25038BF70471CF03F0F28
:104F400018BF70470BE0A2F101025FEA1C2040EBA2
:104F5000C25038BF70471CF07F0F18BF7047C3F1B5
:104F60002003994014BF401E20F0010070478008C4
:104F70004FEA122308BF7047B0FA80FCA2EB0C0284
:104F8000CCF1280C60FA0CF093EA122F04BF00EB6E
:104F9000C25070474FEAC3707047130A5FEADC10D3
:104FA00008BF7047F6E79CEA026F04D010EA5C0F76
:104FB00008BF0020704710B5FFF713FF40DFF63E33
:104FC00081F000407047FBF74DBF0000000000007B
:104FD000000000000000FFFFFFFFFFFFFFFFFFFFDB
:104FE00072000000700000207F0C080C0000000020
:104FF0000000000000000000000808080808080879
:10500000000800000014141400000000000000005C
:10501000000A0A3F1414147E2828000000081C22ED
:10502000201C02221C08000000205122040810222B
:1050300045020000001820201030494A443B00007F
:105040000008080800000000000000000004080834
:1050500010101010100808040010080804040404BC
:1050600004080810000000361C7F1C3600000000F9
:105070000000000808087F08080800000000000081
:1050800000000000000810000000000000007F0089
:105090000000000000000000000000000008000008
:1050A000000001020408102040000000001C222221
:1050B00022222222221C00000008380808080808C2
:1050C000083E0000001C220202040810203E0000DE
:1050D000001C2202020C0202221C000000040C0C24
:1050E0001414243E040E0000003E2020203C020246
:1050F000221C0000000C1020203C2222221C000058
:10510000003E22020404080810100000001C2222A5
:10511000221C2222221C0000001C2222221E02022B
:105120000418000000000000080000000008000053
:10513000000000000800000000081000000000044B
:105140000810201008040000000000003E003E008F
:105150000000000000000010080402040810000015
:10516000001C22020204080800080000001E214D55
:105170005555554E201C0000001808081414223EF6
:1051800022770000007E2121213E2121217E000086
:10519000001E214040404040211E0000007C222192
:1051A00021212121227C0000007F2120243C242079
:1051B000217F0000007F2120243C24202078000053
:1051C000001E214040404741211E0000007722225E
:1051D000223E222222770000003E08080808080824
:1051E000083E0000001E0404040404444438000087
:1051F000007322242428382422730000007C10101D
:1052000010101010117F000000632236362A2A2267
:105210002277000000672232322A262622720000FE
:10522000001C224141414141221C0000007E2121FD
:10523000213E202020780000001C224141414141B4
:10524000221C1B00007E2121213E24242273000009
:10525000003E4140403E0101413E0000007F4908C0
:1052600008080808081C00000077222222222222B7
:10527000221C0000007722222214141408080000C7
:1052800000772222222A2A2A1414000000772214EE
:10529000140814142277000000772222141408083E
:1052A000081C0000007F420404081010217F000049
:1052B000001C1010101010101010101C00004020C6
:1052C0001008040201000000001C0404040404048B
:1052D0000404041C08142200000000000000000068
:1052E0000000000000000000000000FF00100800A7
:1052F0000000000000000000000000003C023E42F0
:10530000423D0000006020203E212121217E00003E
:10531000000000003E414040413E00000006020205
:105320003E424242423F0000000000003E417F40BA
:10533000413E0000000C10103C101010103C00000A
:10534000000000003F4242423E02023C006020203A
:105350002C322222227700000008000038080808BA
:10536000083E0000000400003C0404040404043867
:105370000060202026242838246300000018080834
:1053800008080808083E000000000000742A2A2AC5
:105390002A6B0000000000006C32222222770000FD
:1053A000000000003E414141413E0000000000007D
:1053B0007E212121213E2070000000003F42424218
:1053C000423E02070000000076191010107C000019
:1053D000000000003E413806413E00000000101071
:1053E0003C101010120C0000000000006622222267
:1053F000261B000000000000772222141408000081
:105400000000000077222A2A141400000000000087
:1054100077221C1C22770000000000007722221453
:1054200014080830000000007E440810227E0000AE
:1054300000060808080830080808080608080808D0
:1054400008080808080808080030080808080608BE
:105450000808083000003149460000000000000044
:1054600000001C1C1C1C1C1C1C1C1C000400000834
:105470000000000000000002000100001000000019
:105480000000000000000000303132333435363780
:105490003839414243444546403058003031323378
:1054A0003435363738396162636465664030780078
:1054B00002400000000000A00000000005400000C5
:1054C000000000C8000000000C4000000000409CEC
:1054D00000000000194000000020BCBE00000000D9
:1054E00034400000BFC91B8E00000004B54000001E
:1054F000504BCFD06607E2CF010000006C410000A6
:105500003E8251AADFEEA73401000000D94200001C
:10551000DCB5A0E23A301F97FFFFFFFFB445000063
:10552000FD25A0C8E9A3C14FFFFFFFFFFF3F00001B
:105530000000008000000000FF3F0000000000802D
:10554000000000000000000000000000173B000009
:10555000173B0000173B00000000000000000000A7
:105560000000000000000000A3380000A93800007F
:1055700051200000C11F000095380000000000000D
:105580000000000000000000000000008122000078
:105590002D370000000000000000000000000000A7
:1055A00000000000272300000000000000000000B1
:1055B000000000000D2300004D23000047230000E1
:1055C00000000000E9220000FB22000000000000B3
:1055D00000000000000000000000000000000000CB
:1055E00000000000173B0000173B00000000000017
:1055F0000000000000000000000000005124000036
:105600001D3A000000000000000000000000000043
:10561000173B0000173B00000000000000000000E6
:1056200011270000952600003B2700000000000025
:105630001927000000000000000000009127000072
:105640000000000000000000F9270000000000003A
:10565000000000000000000000000000D128000051
:10566000000000000000000000000000173B0000E8
:105670005D290000852900000000000000000000F6
:10568000000000000000000000000000000000001A
:10569000000000000000000000000000000000000A
:1056A0000000000000000000173B0000173B000056
:1056B000173B00000000000000000000DF2A00008F
:1056C000000000000D3200002B3200004B320000C1
:1056D0006932000000000000912A0000CD2A00007D
:1056E0008D2A00000000000000000000532B000085
:1056F000D92B0000173B0000000000000000000054
:10570000172E00005D290000852900000000000020
:105710000000000000000000000000000000000089
:105720000000000000000000000000000000000079
:10573000000000000000000000000000552E0000E6
:1057400000000000BD2E000000000000000000006E
:10575000532B0000D92B0000D52F000000000000C3
:1057600000000000BB30000000000000000000004E
:105770000000000000000000173B0000173B000085
:10578000173B0000173B0000000000000000000075
:105790000000000000000000000000000000000009
:1057A0008734000049340000C933000000000000C5
:1057B000F1330000173B0000173B0000173B0000CF
:1057C0000000000000000000173B0000173B000035
:1057D000000000000000000000000000173B000077
:1057E000173B00000000000000000000173B000015
:1057F000173B0000173B0000173B0000173B000061
:10580000173B000000000000000000000000000046
:1058100000000000173B00002D37000000000000D2
:105820000000000000000000873400004934000040
:10583000C933000000000000F1330000C137000050
:105840003D37000055370000000000000000000058
:1058500031380000000000000000000000000000DF
:1058600000000000A3380000A9380000173B00002A
:10587000173B000095380000000000000000000009
:10588000253F0000593F0000753F00007F3F0000AA
:105890000000000000000000000000000000000008
:1058A000173B00001D3A000000000000000000004F
:1058B00000000000000000002F3A0000653A0000E0
:1058C00000000000573A00005D3A000000000000B0
:1058D00000000000000000000000000000000000C8
:1058E000000000000000000000000000DD250000B6
:1058F00000000000000000000000000000000000A8
:10590000173B00000000000000000000D32600004C
:10591000C5260000000000000000000099310000D2
:105920000000000000000000D13200000000000074
:105930000D3200002B3200004B32000069320000B3
:1059400000000000173B0000893200008732000091
:105950000000000000000000493300004133000057
:105960000000000000000000333600002336000075
:1059700003360000D9350000E9350000CC5A00009C
:1059800000000010E800000008010000B45B000007
:10599000E800001010720000240100001C0000004C
:1059A00043000000F8FFFFFF0C0000000E000000A5
:1059B0000F0000002E000000100100004300000056
:1059C000F8FFFFFF00404040404040404040414120
:1059D00041414140404040404040404040404040C4
:1059E000404040404005020202020202020202025E
:1059F000020202020220202020202020202020025B
:105A000002020202020290909090909010101010EA
:105A10001010101010101010101010101010101086
:105A2000020202020202888888888888080808081A
:105A300008080808080808080808080808080808E6
:105A4000020202024000000000000000000000000E
:105A50000000000000000000000000000000000046
:105A60000000000000000000000000000000000036
:105A70000000000000000000000000000000000026
:105A80000000000000000000000000000000000016
:105A90000000000000000000000000000000000006
:105AA00000000000000000000000000000000000F6
:105AB00000000000000000000000000000000000E6
:105AC000000000000000000055E0FFFF00093D005D
:105AD00000000000000000000000000000000000C6
